S019000062616467655F706F72745F617474696E792E73726563FC
S11300000C9448000C9465000C9465000C946500F5
S11300100C9414030C9465000C9465000C94650016
S11300200C9465000C9465000C9465000C946500B8
S11300300C9465000C9465000C9465000C946500A8
S11300400C9465000C9465000C9465000C94650098
S11300500C9465000C9465000C9465000C94650088
S11300600C9465000C9465000C9465000C94650078
S11300700C9465000C9465000C9465003B014801E8
S11300807D019601E3010C0261027A029F02AC0237
S113009011241FBECFEFCDBFDFE3DEBF18E3A0E026
S11300A0B8E3E0EAF6E002C005900D92A230B10791
S11300B0D9F728E3A2E0B8E301C01D92A330B20748
S11300C0E1F70E94DA020C944E030C94000007C07E
S11300D0EBE4FDE13197F1F700C000000A97181630
S11300E01906B4F30895AF92BF92CF92DF92EF92C4
S11300F0FF920F931F93CF93DF93EC018B01019732
S1130100E9F4A12C6894BB24B2F86894CC24C7F811
S1130110F501C5826894EE24E5F8FF24F2F86894AA
S1130120DD24D2F8F701D582CB010E946700F501E6
S1130130C682F701D682C8010E946700C230D10589
S1130140E9F4A12C6894BB24B2F86894CC24C6F8D2
S1130150F501C5826894EE24E5F8FF24F2F868946A
S1130160DD24D2F8F701D582C8010E946700F501A9
S1130170C682F701D682C8010E946700CD2BC9F45C
S1130180C12C6894DD24D2F80F2EF0EFEF2EF02D61
S1130190F601E582C0E2D4E06894FF24F2F8FD821F
S11301A0C8010E946700F601E682FE82C8010E942F
S11301B06700DF91CF911F910F91FF90EF90DF9037
S11301C0CF90BF90AF900895809102388823B9F002
S11301D08091280481FFFCCF2FE58AEE90E0215026
S11301E080409040E1F700C0000010920238E0E245
S11301F0F4E081858260818781E090E0089580E069
S113020090E00895CF92DF92EF92FF920F931F93A5
S1130210CF93DF936C017B018A01C0E0D0E005C07D
S1130220B701C6010E9473002196C017D107C4F319
S1130230DF91CF911F910F91FF90EF90DF90CF90BE
S1130240089581E090E00E9432038093003808957D
S1130250682F81E090E00E943A030895CF93DF93E2
S1130260EC01FC013197EA30F10508F09DC1E25C34
S1130270FF4F0C942C0344E050E068E270E080E00F
S113028090E00E94020188EE93E00E9467008CC116
S113029043E050E068E270E081E090E00E940201F7
S11302A080E590E00E94670068E270E082E090E000
S11302B00E94730068E270E081E090E00E947300A5
S11302C068E270E082E090E00E94730068E270E00F
S11302D081E090E00E94730080E590E00E94670056
S11302E043E050E068E270E082E090E00E940201A6
S11302F080E590E00E94670057C143E050E068E267
S113030070E081E090E00E94020184EC99E00E9498
S1130310670043E050E068E270E082E090E00E9411
S1130320020184EC99E00E9467003EC145E050E080
S113033068E270E081E090E00E94020180E590E0D4
S11303400E94670068E270E082E090E00E9473001F
S113035068E270E081E090E00E94730068E270E07F
S113036082E090E00E94730068E270E081E090E037
S11303700E94730068E270E082E090E00E947300E3
S113038068E270E081E090E00E94730068E270E04F
S113039082E090E00E94730068E270E081E090E007
S11303A00E94730080E590E00E94670045E050E001
S11303B068E270E082E090E00E94020180E590E053
S11303C00E946700F1C042E050E068E270E082E021
S11303D090E00E94020143E050E068E270E081E0B6
S11303E090E00E9402018CED95E00E94670042E0DB
S11303F050E068E270E081E090E00E94020143E096
S113040050E068E270E082E090E00E9402018CED2E
S113041095E00E946700C8C043E050E06EE170E0E0
S113042081E090E00E94020184E690E00E9467006F
S113043045E050E062E370E081E090E00E94020158
S11304408CE291E00E94670043E050E06EE170E0CE
S113045082E090E00E94020184E690E00E9467003E
S113046045E050E062E370E082E090E00E94020127
S11304708CE291E00E94670043E050E06EE170E09E
S113048080E090E00E94020143E050E060E570E00B
S113049080E090E00E94020143E050E06EE170E0F1
S11304A080E090E00E94020143E050E060E570E0EB
S11304B080E090E00E9402018CE291E00E946700DB
S11304C073C044E050E06EE170E081E090E00E948F
S11304D002018CEB92E00E94670044E050E06EE180
S11304E070E082E090E00E9402018CEB92E00E94B6
S11304F067005AC048E050E068E270E080E090E0B5
S11305000E94020184E690E00E94670042E050E00D
S113051068E270E081E090E00E94020184E690E0ED
S11305200E94670042E050E068E270E082E090E000
S11305300E94020184E690E00E94670035C045E015
S113054050E068E270E080E090E00E9402018FEAEF
S113055090E00E94670028C046E050E068E270E046
S113056081E090E00E94020146E050E068E270E021
S113057082E090E00E94020184E690E00E9467001D
S113058049E050E068E270E081E090E00E940201FE
S113059049E050E068E270E082E090E00E940201ED
S11305A086E990E00E946700CE010E942801DF9155
S11305B0CF910895E0E2F4E08189887F818B81897D
S11305C08360818B80EF8093010484E0818378943D
S11305D00E942101809100388B3018F081E08093D3
S11305E0003880910038882349F08091003890E0E9
S11305F00E942E010E94E400892BB9F3C0910038B7
S1130600CF5FC0930038CB3019F4C1E001C0C1E022
S11306108C2F90E00E942E010E94E400892BC1F3EC
S1130620CF5FCB30A9F7F3CF1F920F920FB60F9283
S113063011248F93EF93FF9381E080930238E0E2DB
S1130640F4E0818582608187FF91EF918F910F9013
S11306500FBE0F901F901895EE0FFF1F0590F49199
S1130660E02D099403D0808199270895FC01E0507E
S1130670FC4E0895262FAF93BF93E0E0F0E1328162
S113068031FDFDCFDC01A050BC4E2C932DE924BFDD
S113069023E020830196BF91AF910895F894FFCF92
S10506A0010053
S9030000FC
